{
  "contractName": "Funding",
  "abi": [
    {
      "inputs": [
        {
          "internalType": "uint256",
          "name": "minimum",
          "type": "uint256"
        }
      ],
      "payable": true,
      "stateMutability": "payable",
      "type": "constructor"
    },
    {
      "constant": true,
      "inputs": [
        {
          "internalType": "address",
          "name": "",
          "type": "address"
        }
      ],
      "name": "approvers",
      "outputs": [
        {
          "internalType": "bool",
          "name": "",
          "type": "bool"
        }
      ],
      "payable": false,
      "stateMutability": "view",
      "type": "function"
    },
    {
      "constant": true,
      "inputs": [],
      "name": "approversCount",
      "outputs": [
        {
          "internalType": "uint256",
          "name": "",
          "type": "uint256"
        }
      ],
      "payable": false,
      "stateMutability": "view",
      "type": "function"
    },
    {
      "constant": true,
      "inputs": [],
      "name": "manager",
      "outputs": [
        {
          "internalType": "address",
          "name": "",
          "type": "address"
        }
      ],
      "payable": false,
      "stateMutability": "view",
      "type": "function"
    },
    {
      "constant": true,
      "inputs": [],
      "name": "minimumContribution",
      "outputs": [
        {
          "internalType": "uint256",
          "name": "",
          "type": "uint256"
        }
      ],
      "payable": false,
      "stateMutability": "view",
      "type": "function"
    },
    {
      "constant": true,
      "inputs": [],
      "name": "numPatients",
      "outputs": [
        {
          "internalType": "uint256",
          "name": "",
          "type": "uint256"
        }
      ],
      "payable": false,
      "stateMutability": "view",
      "type": "function"
    },
    {
      "constant": true,
      "inputs": [
        {
          "internalType": "uint256",
          "name": "",
          "type": "uint256"
        }
      ],
      "name": "patient",
      "outputs": [
        {
          "internalType": "string",
          "name": "patientName",
          "type": "string"
        },
        {
          "internalType": "uint256",
          "name": "requiredMoney",
          "type": "uint256"
        },
        {
          "internalType": "address",
          "name": "recipientAddress",
          "type": "address"
        },
        {
          "internalType": "bool",
          "name": "complete",
          "type": "bool"
        },
        {
          "internalType": "uint256",
          "name": "approvalCount",
          "type": "uint256"
        }
      ],
      "payable": false,
      "stateMutability": "view",
      "type": "function"
    },
    {
      "constant": true,
      "inputs": [
        {
          "internalType": "uint256",
          "name": "",
          "type": "uint256"
        }
      ],
      "name": "requests",
      "outputs": [
        {
          "internalType": "string",
          "name": "patientName",
          "type": "string"
        },
        {
          "internalType": "uint256",
          "name": "requiredMoney",
          "type": "uint256"
        },
        {
          "internalType": "address",
          "name": "recipientAddress",
          "type": "address"
        },
        {
          "internalType": "bool",
          "name": "complete",
          "type": "bool"
        },
        {
          "internalType": "uint256",
          "name": "approvalCount",
          "type": "uint256"
        }
      ],
      "payable": false,
      "stateMutability": "view",
      "type": "function"
    },
    {
      "constant": false,
      "inputs": [],
      "name": "contribute",
      "outputs": [],
      "payable": true,
      "stateMutability": "payable",
      "type": "function"
    },
    {
      "constant": false,
      "inputs": [
        {
          "internalType": "string",
          "name": "PatientName",
          "type": "string"
        },
        {
          "internalType": "uint256",
          "name": "value",
          "type": "uint256"
        },
        {
          "internalType": "address",
          "name": "recipient",
          "type": "address"
        }
      ],
      "name": "requestMoney",
      "outputs": [],
      "payable": false,
      "stateMutability": "nonpayable",
      "type": "function"
    },
    {
      "constant": false,
      "inputs": [
        {
          "internalType": "uint256",
          "name": "requestId",
          "type": "uint256"
        }
      ],
      "name": "approveRequest",
      "outputs": [],
      "payable": false,
      "stateMutability": "nonpayable",
      "type": "function"
    },
    {
      "constant": false,
      "inputs": [
        {
          "internalType": "uint256",
          "name": "requestId",
          "type": "uint256"
        }
      ],
      "name": "finalizeRequest",
      "outputs": [],
      "payable": true,
      "stateMutability": "payable",
      "type": "function"
    },
    {
      "constant": true,
      "inputs": [],
      "name": "getAllDetails",
      "outputs": [
        {
          "internalType": "uint256",
          "name": "",
          "type": "uint256"
        },
        {
          "internalType": "uint256",
          "name": "",
          "type": "uint256"
        },
        {
          "internalType": "uint256",
          "name": "",
          "type": "uint256"
        },
        {
          "internalType": "uint256",
          "name": "",
          "type": "uint256"
        },
        {
          "internalType": "address",
          "name": "",
          "type": "address"
        }
      ],
      "payable": false,
      "stateMutability": "view",
      "type": "function"
    }
  ],
  "bytecode": "0x60806040526000600555604051610efd380380610efd8339818101604052602081101561002b57600080fd5b8101908080519060200190929190505050336000806101000a81548173ffffffffffffffffffffffffffffffffffffffff021916908373ffffffffffffffffffffffffffffffffffffffff1602179055508060028190555050610e6a806100936000396000f3fe6080604052600436106100a75760003560e01c8063937e09b111610064578063937e09b1146103c5578063ccc5d7d4146103f0578063cf22eac114610463578063d7bb99ba14610555578063d7d1bbdb1461055f578063fb3bf3481461059a576100a7565b806303441006146100ac5780630a144391146100da578063481c6a751461014357806374607d911461019a57806381d12c581461029a57806382fde0931461039a575b600080fd5b6100d8600480360360208110156100c257600080fd5b81019080803590602001909291905050506105c5565b005b3480156100e657600080fd5b50610129600480360360208110156100fd57600080fd5b81019080803573ffffffffffffffffffffffffffffffffffffffff169060200190929190505050610731565b604051808215151515815260200191505060405180910390f35b34801561014f57600080fd5b50610158610751565b604051808273ffffffffffffffffffffffffffffffffffffffff1673ffffffffffffffffffffffffffffffffffffffff16815260200191505060405180910390f35b3480156101a657600080fd5b506101d3600480360360208110156101bd57600080fd5b8101908080359060200190929190505050610776565b60405180806020018681526020018573ffffffffffffffffffffffffffffffffffffffff1673ffffffffffffffffffffffffffffffffffffffff16815260200184151515158152602001838152602001828103825287818151815260200191508051906020019080838360005b8381101561025b578082015181840152602081019050610240565b50505050905090810190601f1680156102885780820380516001836020036101000a031916815260200191505b50965050505050505060405180910390f35b3480156102a657600080fd5b506102d3600480360360208110156102bd57600080fd5b8101908080359060200190929190505050610871565b60405180806020018681526020018573ffffffffffffffffffffffffffffffffffffffff1673ffffffffffffffffffffffffffffffffffffffff16815260200184151515158152602001838152602001828103825287818151815260200191508051906020019080838360005b8381101561035b578082015181840152602081019050610340565b50505050905090810190601f1680156103885780820380516001836020036101000a031916815260200191505b50965050505050505060405180910390f35b3480156103a657600080fd5b506103af610979565b6040518082815260200191505060405180910390f35b3480156103d157600080fd5b506103da61097f565b6040518082815260200191505060405180910390f35b3480156103fc57600080fd5b50610405610985565b604051808681526020018581526020018481526020018381526020018273ffffffffffffffffffffffffffffffffffffffff1673ffffffffffffffffffffffffffffffffffffffff1681526020019550505050505060405180910390f35b34801561046f57600080fd5b506105536004803603606081101561048657600080fd5b81019080803590602001906401000000008111156104a357600080fd5b8201836020820111156104b557600080fd5b803590602001918460018302840111640100000000831117156104d757600080fd5b91908080601f016020809104026020016040519081016040528093929190818152602001838380828437600081840152601f19601f82011690508083019250505050505050919291929080359060200190929190803573ffffffffffffffffffffffffffffffffffffffff1690602001909291905050506109cd565b005b61055d610b85565b005b34801561056b57600080fd5b506105986004803603602081101561058257600080fd5b8101908080359060200190929190505050610bff565b005b3480156105a657600080fd5b506105af610d03565b6040518082815260200191505060405180910390f35b60006007600083815260200190815260200160002090508060020160149054906101000a900460ff16156105f857600080fd5b60026001548161060457fe5b0481600301541161061457600080fd5b8060020160009054906101000a900473ffffffffffffffffffffffffffffffffffffffff1673ffffffffffffffffffffffffffffffffffffffff168160010154604051602001808281526020019150506040516020818303038152906040526040518082805190602001908083835b602083106106a65780518252602082019150602081019050602083039250610683565b6001836020036101000a0380198251168184511680821785525050505050509050019150506000604051808303816000865af19150503d8060008114610708576040519150601f19603f3d011682016040523d82523d6000602084013e61070d565b606091505b50505060018160020160146101000a81548160ff0219169083151502179055505050565b60036020528060005260406000206000915054906101000a900460ff1681565b6000809054906101000a900473ffffffffffffffffffffffffffffffffffffffff1681565b6007602052806000526040600020600091509050806000018054600181600116156101000203166002900480601f0160208091040260200160405190810160405280929190818152602001828054600181600116156101000203166002900480156108225780601f106107f757610100808354040283529160200191610822565b820191906000526020600020905b81548152906001019060200180831161080557829003601f168201915b5050505050908060010154908060020160009054906101000a900473ffffffffffffffffffffffffffffffffffffffff16908060020160149054906101000a900460ff16908060030154905085565b6004818154811061087e57fe5b9060005260206000209060050201600091509050806000018054600181600116156101000203166002900480601f01602080910402602001604051908101604052809291908181526020018280546001816001161561010002031660029004801561092a5780601f106108ff5761010080835404028352916020019161092a565b820191906000526020600020905b81548152906001019060200180831161090d57829003601f168201915b5050505050908060010154908060020160009054906101000a900473ffffffffffffffffffffffffffffffffffffffff16908060020160149054906101000a900460ff16908060030154905085565b60015481565b60025481565b6000806000806000600254476004805490506001546000809054906101000a900473ffffffffffffffffffffffffffffffffffffffff16945094509450945094509091929394565b6000600760006006600081546001019190508190558152602001908152602001600020905083816000019080519060200190610a0a929190610d09565b50828160010181905550818160020160006101000a81548173ffffffffffffffffffffffffffffffffffffffff021916908373ffffffffffffffffffffffffffffffffffffffff16021790555060008160020160146101000a81548160ff021916908315150217905550600081600301819055506004819080600181540180825580915050906001820390600052602060002090600502016000909192909190915060008201816000019080546001816001161561010002031660029004610ad3929190610d89565b50600182015481600101556002820160009054906101000a900473ffffffffffffffffffffffffffffffffffffffff168160020160006101000a81548173ffffffffffffffffffffffffffffffffffffffff021916908373ffffffffffffffffffffffffffffffffffffffff1602179055506002820160149054906101000a900460ff168160020160146101000a81548160ff0219169083151502179055506003820154816003015550505050505050565b6002543411610b9357600080fd5b6001600360003373ffffffffffffffffffffffffffffffffffffffff1673ffffffffffffffffffffffffffffffffffffffff16815260200190815260200160002060006101000a81548160ff021916908315150217905550600160008154809291906001019190505550565b60006007600083815260200190815260200160002090508060040160003373ffffffffffffffffffffffffffffffffffffffff1673ffffffffffffffffffffffffffffffffffffffff16815260200190815260200160002060009054906101000a900460ff1615610c6f57600080fd5b60018160040160003373ffffffffffffffffffffffffffffffffffffffff1673ffffffffffffffffffffffffffffffffffffffff16815260200190815260200160002060006101000a81548160ff0219169083151502179055508060030160008154809291906001019190505550600460015481610ce957fe5b0481600301541115610cff57610cfe826105c5565b5b5050565b60065481565b828054600181600116156101000203166002900490600052602060002090601f016020900481019282601f10610d4a57805160ff1916838001178555610d78565b82800160010185558215610d78579182015b82811115610d77578251825591602001919060010190610d5c565b5b509050610d859190610e10565b5090565b828054600181600116156101000203166002900490600052602060002090601f016020900481019282601f10610dc25780548555610dff565b82800160010185558215610dff57600052602060002091601f016020900482015b82811115610dfe578254825591600101919060010190610de3565b5b509050610e0c9190610e10565b5090565b610e3291905b80821115610e2e576000816000905550600101610e16565b5090565b9056fea265627a7a7231582070bcce246c45268efaef148c9c047a113b7d0fb1814a45e5315bac44812a7ca064736f6c63430005100032",
  "source": "pragma solidity ^0.5.0;\r\n\r\ncontract Funding {\r\n    modifier owner()\r\n    {\r\n        require(msg.sender == manager);\r\n        _;\r\n        // only owner can operate on the smart contract\r\n    }\r\n\r\n    address public manager;\r\n    uint public approversCount;\r\n    uint public minimumContribution;\r\n    mapping(address => bool) public approvers;\r\n    PatientDetails[] public requests;\r\n    uint currentbalance = 0;\r\n\r\n    struct PatientDetails {\r\n        string patientName;\r\n        uint requiredMoney;\r\n        address recipientAddress;\r\n        bool complete;\r\n        uint approvalCount;\r\n        mapping(address => bool) approvals;\r\n    }\r\n   \r\n\r\n    // Constructor function to set minimum amount for donation\r\n    constructor (uint minimum) public payable{\r\n        manager = msg.sender;\r\n        minimumContribution = minimum;\r\n    }\r\n\r\n    // Function for Donations Call\r\n    function contribute() public payable {\r\n        require(msg.value > minimumContribution);\r\n        approvers[msg.sender] = true;\r\n        approversCount++;\r\n    }\r\n\r\n    uint256 public numPatients;\r\n    mapping (uint256 => PatientDetails) public patient;\r\n\r\n    // request has some basic fields describing what is owner trying to purchase: \r\n    // \"ex new goodies for people\", how much is he asking for, and who is the recipient\r\n    function requestMoney(string memory PatientName, uint256 value, address recipient) public  {\r\n          PatientDetails storage newPatient = patient[++numPatients];\r\n          newPatient.patientName = PatientName;\r\n          newPatient.requiredMoney = value;\r\n          newPatient.recipientAddress = recipient;\r\n          newPatient.complete = false;\r\n          newPatient.approvalCount = 0;\r\n          \r\n          requests.push(newPatient);\r\n    }\r\n\r\n    // this is a way for a contributor to inspect the request and say\r\n    // \"Yes, you can spend my money towards that!\"\r\n    function approveRequest(uint requestId) public {\r\n        PatientDetails storage request = patient[requestId];\r\n        \r\n        // check if approver has already voted\r\n        require(!request.approvals[msg.sender]);\r\n        \r\n        request.approvals[msg.sender] = true;\r\n        request.approvalCount++;\r\n        if(request.approvalCount > (approversCount / 4)){\r\n            finalizeRequest(requestId);\r\n        }\r\n    }\r\n\r\n    // When there are enough votes, the owner can trigger the\r\n    // finalization of the request, and proceed with his work\r\n    function finalizeRequest(uint requestId) public payable {\r\n        PatientDetails storage request = patient[requestId];\r\n        \r\n        require(!request.complete);\r\n        \r\n        require(request.approvalCount > (approversCount / 2));\r\n        \r\n        request.recipientAddress.call(abi.encode(request.requiredMoney));\r\n        request.complete = true;\r\n        \r\n    }\r\n\r\n    // Returns all info, useful for displaying\r\n    // the data for frontend application\r\n    function getAllDetails() public view returns (uint, uint, uint, uint, address) \r\n    {\r\n        return (\r\n            minimumContribution,\r\n            address(this).balance,\r\n            requests.length,\r\n            approversCount,\r\n            manager\r\n        );\r\n    }\r\n\r\n}",
  "sourcePath": "E:/Tech/React/helpline/src/contracts/Transactions.sol",
  "compiler": {
    "name": "solc",
    "version": "0.5.16+commit.9c3226ce.Emscripten.clang"
  },
  "schemaVersion": "3.2.5",
  "updatedAt": "2021-05-20T16:25:16.421Z",
  "devdoc": {
    "methods": {}
  },
  "userdoc": {
    "methods": {}
  }
}